:100000000C9443000C9460000C9460000C9460000D
:100010000C9460000C9460000C9460000C946000E0
:100020000C9460000C9460000C942C010C94600003
:100030000C9460000C9460000C9460000C946000C0
:100040000C9460000C9460000C9460000C946000B0
:100050000C9460000C9460000C9460000C946000A0
:100060000C9460000C94600005A84CCDB2D44EB93D
:100070003836A9020C50B9918688083CA6AAAA2A4B
:10008000BE000000803F11241FBECFEFD8E0DEBFCE
:10009000CDBF11E0A0E0B1E0E4EDF7E002C00590D3
:1000A0000D92A230B107D9F721E0A2E0B1E001C082
:1000B0001D92AD30B207E1F70E9461010C94E80394
:1000C0000C94000010928000E1E8F0E080818961EA
:1000D000808383E690E09093870080938600EFE62C
:1000E000F0E080818062808384B5836284BD85B5C1
:1000F000896085BD83E687BD82E388BD089580E67B
:100100008AB91BB808958F929F92AF92BF92CF92F7
:10011000DF92EF92FF9260910C0170E080910A01F2
:1001200090910B016C01E12CF12C8617970708F4D4
:1001300043C0882777FD8095982F0E94760220E0A3
:1001400030E044E353E40E9402034B015C01C70129
:10015000B6010E9474029B01AC01C501B4010E946A
:10016000E00123EC35EF48E450E40E94020320E074
:1001700030E044E353E40E94E00160930601709391
:10018000070180930801909309010E946503609321
:10019000020170930301809304019093050120E014
:1001A00030E040E252E40E94020320E030E048E404
:1001B00052E40E947C0144C0681B790B80E090E00F
:1001C0000E94740220E030E044E353E40E94020302
:1001D0004B015C01C701B6010E9474029B01AC0196
:1001E000C501B4010E94E00123EC35EF48E450E47E
:1001F0000E94020320E030E044E353E40E94E00167
:1002000060930601709307018093080190930901A0
:100210000E946503609302017093030180930401BF
:100220009093050120E030E040E252E40E94020396
:100230009B01AC0160E070E088E492E40E947B01E5
:100240000E94480268BDFF90EF90DF90CF90BF9072
:10025000AF909F908F9008951F920F920FB60F92BC
:1002600011242F933F934F935F936F937F938F93BB
:100270009F93AF93BF93EF93FF9320910C0130E0D6
:1002800080910001909101018217930710F4109260
:100290000C0180910C018F5F80930C010E94830000
:1002A000FF91EF91BF91AF919F918F917F916F914E
:1002B0005F914F913F912F910F900FBE0F901F9024
:1002C00018950E9462000E947F0060910001709169
:1002D000010180E090E00E94740220E030E040E004
:1002E0005FE30E9402030E94480270930B01609337
:1002F0000A017894FFCF5058BB27AA270ED048C1D7
:1003000039D130F03ED120F031F49F3F11F41EF48A
:100310002EC10EF4E095E7FB24C1E92F4AD180F30A
:10032000BA17620773078407950718F071F49EF5F2
:1003300062C10EF4E0950B2EBA2FA02D0B01B9016E
:1003400090010C01CA01A0011124FF27591B99F04B
:10035000593F50F4503E68F11A16F040A22F232F57
:10036000342F4427585FF3CF469537952795A795A7
:10037000F0405395C9F77EF41F16BA0B620B730B4E
:10038000840BBAF09150A1F0FF0FBB1F661F771FBF
:10039000881FC2F70EC0BA0F621F731F841F48F474
:1003A000879577956795B795F7959E3F08F0B3CFFA
:1003B0009395880F08F09927EE0F979587950895E4
:1003C0000CD0E6C0DED040F0D5D030F021F45F3F55
:1003D00019F0C7C0511110C1CAC0EBD098F39923CE
:1003E000C9F35523B1F3951B550BBB27AA276217F9
:1003F0007307840738F09F5F5F4F220F331F441F3E
:10040000AA1FA9F333D00E2E3AF0E0E830D0915075
:100410005040E695001CCAF729D0FE2F27D0660F62
:10042000771F881FBB1F261737074807AB07B0E8A1
:1004300009F0BB0B802DBF01FF2793585F4F2AF0B7
:100440009E3F510568F08DC0D7C05F3FECF3983EEA
:10045000DCF3869577956795B795F7959F5FC9F714
:10046000880F911D9695879597F90895E1E0660F9D
:10047000771F881FBB1F621773078407BA0720F016
:10048000621B730B840BBA0BEE1F88F7E09508957F
:1004900098D088F09F5790F0B92F9927B751A0F0C6
:1004A000D1F0660F771F881F991F1AF0BA95C9F708
:1004B00012C0B13081F09FD0B1E008959CC0672F89
:1004C000782F8827B85F39F0B93FCCF386957795B8
:1004D0006795B395D9F73EF49095809570956195A1
:1004E0007F4F8F4F9F4F0895E89409C097FB3EF4CC
:1004F00090958095709561957F4F8F4F9F4F992371
:10050000A9F0F92F96E9BB279395F69587957795EE
:100510006795B795F111F8CFFAF4BB0F11F460FFAE
:100520001BC06F5F7F4F8F4F9F4F16C0882311F006
:1005300096E911C0772321F09EE8872F762F05C01A
:10054000662371F096E8862F70E060E02AF09A95B5
:10055000660F771F881FDAF7880F9695879597F9AA
:10056000089597F99F6780E870E060E008959FEF35
:1005700080EC089500240A9416161706180609063A
:10058000089500240A941216130614060506089509
:10059000092E0394000C11F4882352F0BB0F40F491
:1005A000BF2B11F460FF04C06F5F7F4F8F4F9F4FD1
:1005B000089557FD9058440F551F59F05F3F71F053
:1005C0004795880F97FB991F61F09F3F79F08795BA
:1005D0000895121613061406551FF2CF4695F1DF43
:1005E00008C0161617061806991FF1CF86957105D3
:1005F000610508940895E894BB2766277727CB0107
:1006000097F908950BD0C4CFB5DF28F0BADF18F002
:10061000952309F0A6CFABCF1124EECFCADFA0F30C
:10062000959FD1F3950F50E0551F629FF001729F87
:10063000BB27F00DB11D639FAA27F00DB11DAA1FA6
:10064000649F6627B00DA11D661F829F2227B00DF3
:10065000A11D621F739FB00DA11D621F839FA00D7E
:10066000611D221F749F3327A00D611D231F849FCE
:10067000600D211D822F762F6A2F11249F57504025
:100680008AF0E1F088234AF0EE0FFF1FBB1F661FC0
:10069000771F881F91505040A9F79E3F510570F079
:1006A00060CFAACF5F3FECF3983EDCF38695779559
:1006B0006795B795F795E7959F5FC1F7FE2B880F74
:1006C000911D9695879597F908959F9305D00F9062
:1006D00007FCEE5F28C04BCF74DFE8F3E894E0E05E
:1006E000BB279F57F0F02AED3FE049EC06C0EE0F24
:1006F000BB0F661F771F881F28F0B23A6207730787
:10070000840728F0B25A620B730B840BE3959A9519
:1007100072F7803830F49A95BB0F661F771F881FD9
:10072000D2F7904813C0EF93E0FF06C0A2EA2AED8B
:100730003FE049EC5FEBF1DD2BDF0F90039401FC10
:100740009058E8E6F0E00EC09F3F31F0915020F461
:10075000879577956795B795880F911D969587959D
:1007600097F908959F938F937F936F93FF93EF93E0
:100770009B01AC0147DFEF91FF9105D02F913F9195
:100780004F915F913FCFDF93CF931F930F93FF92D2
:10079000EF92DF927B018C01689405C0DA2EEF01A5
:1007A0003DDFFE01E894A591259135914591559144
:1007B000AEF3EF01B2DDFE019701A801DA9479F7FB
:1007C000DF90EF90FF900F911F91CF91DF910895EF
:0407D000F894FFCFCB
:0207D400E80338
:00000001FF
